:020000040000FA
:060000000A128A11FB2F19
:100F72008316031788018901831603130911851249
:100F820007108230F100DD30F000F00BC62FF10BBC
:100F9200C62FCB2F08000A128A11B9270A128A110A
:100FA2008312031309158512F401831203138516A4
:100FB2000330F200F20BDB2F83120313851203308E
:100FC200F200F20BE22F0130F2007208F407BE3099
:100FD2007402031CED2FEE2FD62F8230F300DD308A
:100FE200F200F20BF22FF30BF22FF72FD52F0A128A
:0E0FF2008A110028F50183010A128A11CC2F02
:04400E00F12CFF3E54
:00000001FF
