:020000040000FA
:060000000A128A110C280F
:10000800FE00030EF1000A08F2000A128A11732991
:100018000A128A110F280A128A11A3210A128A11B8
:10002800CA000A128A11A4210A128A11CB0083136A
:100038002030840046300A128A1194210A128A114B
:10004800F801F901FA0183010A128A112B280A1210
:100058008A11DF200A128A110A128A11A6210A12AD
:100068008A1183120313091586100A128A119D201A
:100078000A128A110230831203133506031D45281C
:1000880046284828091549280911F701861402301D
:1000980083120313C800C80B4F28000083120313F0
:1000A8008610023083120313C800C80B59280000B9
:1000B800013083120313C8004808F707BE307702DF
:1000C800031C672868284A28823083120313C90052
:1000D800DD30C800C80B6E28C90B6E287C28B90112
:1000E8000A303B02031C79287A287B287C28BB012C
:1000F800831203133908031D8228832873280A12E0
:100108008A1149210A128A110A128A1132210A1205
:100118008A11831203133608031D9328942839285B
:100128000A128A11A5210A128A1139280A128A117B
:100138000C28C9280919A128A228DE280630C600DB
:100148004608F800DE280A128A1187210A128A1145
:10015800740883120313C70079087302C600031CCE
:10016800C70313304702893003194602031CBD2810
:10017800BE28DE280530C6004608F800DE280A1228
:100188008A11A6210A128A11DE287808831203131D
:10019800C600C7014708003A0319D328C3284608F0
:1001A800053A03199E28033A0319DE28013A031970
:1001B800A728C32808008316031788018901831616
:1001C8000313091185140515861007100A128A11E0
:1001D8005F210A128A110A128A119C210A128A11B5
:1001E8008312031390109012101210140B30970002
:1001F80003309600E83095008316031381128111AD
:100208000114811001118230F400DD30F300F30B8A
:100218000B29F40B0B291029831603130C150B1744
:100228008B17080001308A000408840A820700340A
:100238003F3406345B344F3466346D347D340734D0
:100248007F34673424341D344C34FF34F6341E3480
:100258008634BB3425343234783400340230F50027
:100268008630F4009930F300F30B3829F40B382961
:10027800F50B3829831603130519432944294829FE
:10028800013083120313B60208000230F5008630ED
:10029800F4009930F300F30B4F29F40B4F29F50BB9
:1002A8004F2983120313851C5A295B295D290511DF
:1002B8005E290515080019308316031399001815CF
:1002C8001812831203139817831603138717071737
:1002D80083120313181683160313981608000B11BC
:1002E8000730F00070088312031381070130AC0750
:1002F8000318AD0A0030AD0772088A00710E83003A
:10030800FE0E7E0E09008B13831203132D08F600D0
:100318002C08F5008B177608F4007508F300080020
:1003280064008001840A0406031900340406952930
:1003380083160313880183120313880108001E34EF
:060348001E34080008004D
:04400E00F12CFF3E54
:00000001FF
