:020000040000FA
:060000000A128A110E280D
:10000800FE00030EF0000A08F1007F08F2000A1251
:100018008A11CE280A128A111128F601F701F8016F
:10002800F901FA0183120313A001A101A201A3019E
:10003800A401A501A601A70183010A128A11242897
:100048000A128A1180200A128A11831203130915D1
:100058008512F501831203138516023083120313E8
:10006800A800A80B3528000083120313851202305C
:1000780083120313A800A80B3F2800000130FF00DB
:100088007F08F507BE307502031C4B284C282E2824
:10009800823083120313A900DD30A800A80B522870
:1000A800A90B52280A128A11B6200A128A1174283A
:1000B800A401A5012708803AFF0080307F02031DB4
:1000C80067280A302602031C6A286B286F288312C7
:1000D800031309157228831203130911A601A70136
:1000E8008312031324082504031D7B287C285C281D
:1000F8002D280A128A110E288316031788018901F0
:100108008316031309158514851207100A128A111C
:10011800E4200A128A110A128A1110210A128A117D
:100128008312031390109012101210140B309700C2
:1001380003309600E830950083160313811281116D
:100148000114811001118230F400DD30F300F30B4B
:10015800AB28F40BAB28B028831603130C150B1728
:100168008B170800831203138518BB28BC28BF28E7
:10017800F801F901CD28F301F40178087302A6000B
:100188007908031C790A7402A7000130A400003022
:10019800A50008000B110730FF007F088312031326
:1001A80081070130F6070318F70A0030F7077208CD
:1001B800FF0071088A00700E8300FE0E7E0E090093
:1001C8001930831603139900181518128312031394
:1001D8009817831603138717071783120313181624
:0801E8008316031398160800AA
:1002000001308A000408840A820700343F3406342F
:100210005B344F3466346D347D3407347F34673457
:0E02200083160313880183120313880108005C
:04400E00F12CFF3E54
:00000001FF
