:020000040000FA
:060000000A128A110C280F
:10000800FE00030EF1000A08F2000A128A11E02825
:100018000A128A110F28F601F701F801F901FA010D
:1000280083120313A001A101A201A301A401A50148
:10003800A601A70183010A128A1122280A128A112D
:100048007E200A128A118312031309158512F501FD
:100058008516023083120313A800A80B312800006C
:10006800831203138512023083120313A800A80B0E
:100078003B280000013083120313A8002808F50765
:10008800BE307502031C49284A282C288230831266
:100098000313A900DD30A800A80B5028A90B50288D
:1000A8000A128A11B4200A128A117228A401A50121
:1000B8002708803AFF0080307F02031D65280A3038
:1000C8002602031C682869286D2883120313091562
:1000D8007028831203130911A601A70183120313C1
:1000E80024082504031D79287A285A282B280A125F
:1000F8008A110C28831603178801890183160313B4
:1001080009158514851207100A128A11CC200A12C3
:100118008A110A128A1110210A128A1183120313F2
:1001280090109012101210140B30970003309600A4
:10013800E830950083160313811281110114811090
:1001480001118230F400DD30F300F30BA928F40B21
:10015800A928AE28831603130C150B178B17080054
:10016800831203138518B928BA28BD28F801F901A4
:10017800CB28F301F40178087302A6007908031C60
:10018800790A7402A7000130A4000030A500080015
:1001980019308316031399001815181283120313C4
:1001A8009817831603138717071783120313181654
:1001B80083160313981608000B110730F000700817
:1001C8008312031381070130F6070318F70A00307A
:1001D800F70772088A00710E8300FE0E7E0E090072
:1002000001308A000408840A820700343F3406342F
:100210005B344F3466346D347D3407347F34673457
:0E02200083160313880183120313880108005C
:04400E00F12CFF3E54
:00000001FF
