:020000040000FA
:060000000A128A110C280F
:10000800FE00030EF1000A08F2000A128A11932872
:100018000A128A110F280A128A11B7200A128A11A5
:10002800A8000A128A11B8200A128A11A900A00190
:10003800A101A201A301A401A501A601A701F6013E
:10004800F701F801F901FA0183010A128A112C2833
:100058000A128A116D200A128A11831203130915D4
:100068008512F5018516023083120313AA00AA0B24
:100078003B280000831203138512023083120313F6
:10008800AA00AA0B45280000013083120313AA0016
:100098002A08F507BE307502031C53285428362851
:1000A800823083120313AB00DD30AA00AA0B5A2852
:1000B800AB0B5A286128A401A50183120313240855
:1000C8002504031D682869285F2835280A128A1123
:1000D8000C28831603178801890183160313091155
:1000E800851207108230F400DD30F300F30B7A2814
:1000F800F40B7A287F2883120313901090121012A1
:1001080010140B30970003309600E83095008316E2
:1001180003138112811101148110011108000B11C0
:100128000730F00070088312031381070130F607C7
:100138000318F70A0030F70772088A00710E830067
:10014800FE0E7E0E090000308A000408840A820729
:1001580000343F3406345B344F3466346D347D34B8
:0A01680007347F346734013400349B
:04400E00F12CFF3E54
:00000001FF
