:020000040000FA
:060000000A128A110C280F
:10000800FE00030EF1000A08F2000A128A11802E7F
:100018000A128A110F280A128A11C0260A128A1196
:10002800ED000A128A11C1260A128A11EE00831302
:10003800A0308400A8300A128A11B1260A128A1147
:100048004D3084006D300A128A11B1260A128A11C5
:10005800F801F901FA0183010A128A11E42D8312C9
:100068000313B7000230AD002D08B400B601B30188
:100078004F281230AD002D08B6001030AD002D0805
:10008800B3005F287730AD002D08B6003030AD00E2
:100098002D08B3005F283708AD00AE012E08003ADE
:1000A800031957285F282D080C3A03194628023AE5
:1000B80003193D285F2836088038AD002D08F30065
:1000C80002300A128A110F250A128A11803083120F
:1000D8000313AD002D08F60004300A128A113C26DD
:1000E8000A128A11803083120313AD002D08F6001E
:1000F8000A300A128A1122260A128A11F3010130E3
:100108000A128A110F250A128A1183120313B801E1
:10011800B901A62838082907AD002D0884008313E3
:100128000008AE002E08F30009300A128A110F25C4
:100138000A128A11013083120313B8070318B90A87
:100148000030B9072A08AD00AE012E083902031D98
:10015800AF282D083802031CB228B3288E28370888
:10016800AD002D08F30001300A128A110F250A127A
:100178008A110C30831203133706031DC428C528BF
:10018800CF288030AD002D08F6000D300A128A11F4
:1001980022260A128A11FF3083120313B800FF3097
:1001A800B90004300A128A11E1230A128A11831253
:1001B8000313AD002D08BA000130B8020030031C4B
:1001C800B903B902380839040319EB28EC28F628D2
:1001D8003A18EF28F028F6283A0833050319F528C5
:1001E800F628D5288030AD002D08F6000D300A120B
:1001F8008A113C260A128A1183120313380839041B
:10020800031907290829BF2906300A128A11E12390
:100218000A128A111B39031D12291329B9298312BD
:100228000313B40136083A05AD002D1C1C291D29FD
:100238001F29B401B40A0C303706031D24292529C7
:10024800BF290A300A128A11E1230A128A1183127D
:100258000313AD002D08BA000C300A128A11E123ED
:100268000A128A11073983120313AD002D08B5004D
:10027800350803194029412966293A08AD00AE011D
:100288000310AD0DAE0D0310AD0DAE0D0310AD0D89
:10029800AE0D35082D07AF000030031801302E07CA
:1002A800B0002F08F83EB10030080318013EFF3EA9
:1002B800B2002C088400310883138000840A3208B5
:1002C80080007A293A08AD00AE010310AD0DAE0DDD
:1002D8000310AD0DAE0D0310AD0DAE0D2C0884004E
:1002E8002D0883138000840A2E0880003A08031D15
:1002F8007E297F298129BA01BA0A11303A02031CE2
:10030800862987298B291030AD002D08BA00B8013D
:10031800B901A52909300A128A11E1230A128A11A2
:1003280083120313AD0038082B07AE002E08840093
:100338002D08831380000130B8070318B90A00306C
:10034800B9073A08AD00AE012E083902031DAE29DF
:100358002D083802031CB129B2298E2938082B0729
:10036800AD002D0884008001BF29023083120313D9
:10037800AD002D08B4003408080083120313AE0042
:100388002430A6002608AA00712A25302F06031952
:10039800CE29CF29DB292F08A6002E08840026089D
:1003A800831380000130A6002608AE07712A0130A9
:1003B800A307FF30230784000A128A1150250A1266
:1003C8008A11AF00A600A7012708003A0319ED29F2
:1003D800712A2608003A0319832A583A0319F8297A
:1003E800203A0319F829712A2A088400831300087F
:1003F800AB00840A0008AC000230A6002608AA0751
:10040800AF01AF0A2F08A60026070B3E84000A1288
:100418008A1150250A128A11A7000A128A1150253A
:100428000A128A11A80028082C02031D1D2A270871
:100438002B020318202A212A222A2C2A0130A6005E
:100448002608AF0704302F06031D2B2A2C2A062A5C
:100458002F08A6002608AD00682A2D08A600260742
:100468000B3E84000A128A1150250A128A11F300E1
:100478000A128A1150250A128A11F4002C08F60073
:100488002B08F5000A128A1142240A128A117308ED
:100498000F3983120313A7002708A90029081B3E58
:1004A80084000A128A1150250A128A11A600260809
:1004B800AF002F08A6002E088400260883138000AA
:1004C8000130A6002608AE07FF30A6002608AD07B3
:1004D8002D0A031D702A712A312A0130A307FF3023
:1004E800230784000A128A1150250A128A11A600CD
:1004F8002608AF002F08031D822A832AC9292E083F
:10050800840083138001080083120313AD000430B4
:10051800AB002B08F60005300A128A113C260A1295
:100528008A11803083120313AB002B08F6000A30BF
:100538000A128A1122260A128A1183120313AE01A3
:10054800BC2A2D08840083130008AB002B08F30095
:1005580009300A128A110F250A128A1101308312F2
:100568000313AB002B08AD070130AB002B08AE0717
:1005780029082E02031CC12AC22AA52A0330AB006F
:100588002B08F30001300A128A110F250A128A116A
:10059800FF3083120313AB002B08AE0005300A129C
:1005A8008A11E1230A128A1183120313AB002B0864
:1005B800AC000130AE022E080319E32AE42AE82A27
:1005C8002C1DE72AE82AD22A22300A128A11E123AE
:1005D8000A128A1183120313AB002A0884002B081D
:1005E8008313800021300A128A11E1230A128A112A
:1005F80083120313AB002A0A84002B08831380009C
:1006080008000A128A11A4260A128A1183120313F7
:100618004F087302C9005008031C500A7402CA002C
:1006280027304A0210300319490203181C2B1D2BCE
:10063800762B6C300A128A1156260A128A11003A51
:100648000319272B282B1D2BA0300A128A110626E6
:100658000A128A11003A0319322B332B282B8312E2
:100668000313CC013030C9004908A3004C08A03E50
:10067800840083130008CA00CB014A08A4004B0871
:10068800A50068300A128A11C1210A128A110430A1
:1006980083120313C9004908F60068300A128A1148
:1006A800BF250A128A11013083120313C9004908B1
:1006B800CC0704304C02031C622B632B362B06300C
:1006C80083120313CB001330CA00AD30C900C90B25
:1006D8006B2BCA0B6B2BCB0B6B2B0A128A11882442
:1006E8000A128A11080083120313C500C001F3011E
:1006F8000D300A128A110F250A128A1193308312BB
:100708000313BB00450884003B0883138000203096
:10071800BB00450A84003B0880000830BB003B084A
:10072800F60008300A128A113C260A128A1183122E
:1007380003134508BB003B08A9000230BC003C0875
:10074800AA004508BD003D08AB004130BE003E0888
:10075800AC000C300A128A1133200A128A11831253
:100768000313BF003F08C3004308031DBC2BBD2B68
:10077800DF2BC40144084507BB003B0884008313F2
:100788000008BC003C08C0060130BB003B08C40799
:1007980004304402031CD12BD22BBE2B4508043E47
:1007A8008400000840060319DA2BDB2BDF2B02300C
:1007B800BB003B08C3004308080083120313A000D2
:1007C800A301A401871107122008F30001300310C8
:1007D800F30DFF3E031DEB2B7E307305F4008030D4
:1007E8007404A1000030A2000830A5000030A60063
:1007F800A11BFF2B032C831203138716062C8312CD
:1008080003138712871501300310A10DA20DFF3EB7
:10081800031D082C87110130A5020030031CA60314
:10082800A60225082604031D1A2C1B2CFC2B0830B5
:10083800A5000030A600871501300310A30DA40DF4
:10084800FF3E031D212C080CF300730C0139F40042
:10085800F5017408A3047508A40487110130A502E2
:100868000030031CA603A60225082604031D3D2C00
:100878003E2C1F2C07168715230808008312031324
:10088800A101A2017308740403194B2C4C2C832C6E
:10089800A001A00A5A2C01300310F30DF40DFF3EFD
:1008A800031D502C0130F7007708A007F41F5D2CBA
:1008B8005E2C4F2C01300310A10DA20DFF3E031D2D
:1008C8005F2C74087602031D6B2C73087502031CD9
:1008D8006E2C6F2C762C7308F5027408031CF60333
:1008E800F602211401300310F40CF30CFF3E031D33
:1008F800772C0130A002031D822C832C5E2C220849
:10090800F4002108F3000800503083120313BB00E1
:100918003B08BF00C0010230BB003B08A9004130C2
:10092800BC003C08AA003F300A128A1188220A1229
:100938008A11803083120313BB003B08F60008308D
:100948000A128A113C260A128A113F3083120313B5
:10095800BB003B08A9000430BC003C08AA003F309B
:10096800BD003D08AB004330BE003E08AC000C3073
:100978000A128A1133200A128A11083083120313CB
:10098800BB003B08F60008300A128A113C260A12FE
:100998008A11080083120313C0000730BC003C080A
:1009A800F3000D300A128A110F250A128A118312D8
:1009B80003134008BC003B0884003C0883138000F4
:1009C8003B08BC003C08A900AA01AA0A3B08BD00D4
:1009D8003D08AB004230BE003E08AC000C300A12A5
:1009E8008A1133200A128A1183120313BF003F08A9
:1009F800C1004108031D012D022D092D10304206AA
:100A080043040319082D092D0D2D0230BC003C08A4
:100A1800C1004108080083120313A00087110712C0
:100A28002008F40074077E39F5007508A100083025
:100A3800F4007408A200A11B222D262D8312031393
:100A48008716292D83120313871287150310A10D0A
:100A580087110130A2022208031D332D342D1F2DCA
:100A68000830F4007408A200F31B3B2D3F2D8312BD
:100A780003138716422D8312031387128715031059
:100A8800F30D87110130A2022208031D4C2D4D2DB4
:100A9800382D07168715080005308A000408840ACF
:100AA800820700343F3406345B344F3466346D3487
:100AB8007D3407347F346734013400341034003413
:100AC800003401340034103424341D344C34FF34E1
:100AD800F6341E348634BB34303431343234333453
:100AE8003434353436343734383439344134423494
:100AF800433444344534463400342534323478346D
:100B080000342534583400348316031788018901CA
:100B180083160313091185140515861007100A1288
:100B28008A116C260A128A110A128A11B9260A1227
:100B38008A118312031390109012101210140B30A4
:100B4800970003309600E83095008316031381124E
:100B580081110114811001118230F400DD30F3009D
:100B6800F30BB42DF40BB42DB92D831603130C1508
:100B78000B178B17080083120313A300A401A40109
:100B8800DD2D24082307A000200884008313000813
:100B9800A100A2012108F3002208F4000A128A1118
:100BA80094260A128A11013083120313A000200828
:100BB800A40776082402031CE22DE32DC52D0800A6
:100BC8000A128A1188250A128A110A128A11C22663
:100BD8000A128A1183120313091586100A128A1140
:100BE800A4260A128A11740883120313D00073080A
:100BF800CF000A128A1105230A128A11F22D0A124D
:100C08008A110C2883120313C80048080A128A1193
:100C180077230A128A1183120313C6004608C700F5
:100C28004808043E8400831380014708031D1D2ED5
:100C38001E2E202E0130212E0030080083120313AF
:100C4800A80028080A128A11E1230A128A11F7005B
:100C5800770883120313A70027087604F70077089C
:100C6800F30028080A128A110F250A128A110800AF
:100C780083120313A80028080A128A11E1230A1212
:100C88008A11F700770883120313A700760927054E
:100C9800F7007708F30028080A128A110F250A12AC
:100CA8008A11080083120313C5004508C4004408CC
:100CB800BB0026300A128A11CE240A128A11003A81
:100CC800031D672E682E6A2E01306B2E0030080037
:100CD8001930831603139900181518128312031379
:100CE8009817831603138717071783120313181609
:100CF80083160313981608000B110730F0007008CC
:100D08008312031381070130CD070318CE0A003080
:100D1800CE0772088A00710E8300FE0E7E0E09004F
:100D2800831203138C1E992E9A2EA32E1A08F500EF
:100D3800730884008317741C8313750880000800E7
:100D48008B13831203134E08F6004D08F5008B171A
:100D58007608F4007508F300080064008001840A2E
:100D68000406031900340406B22E831603138801FF
:0E0D780083120313880108001E341E34080085
:04400E00F12CFF3E54
:00000001FF
