:020000040000FA
:060000000A128A110C280F
:10000800FE00030EF1000A08F2000A128A11D32832
:100018000A128A110F28F601F701F801F901FA010D
:1000280083120313A001A101A201A301A401A50148
:10003800A601A70183010A128A1122280A128A112D
:1000480072200A128A118312031309158512F50109
:100058008516023083120313A800A80B312800006C
:10006800831203138512023083120313A800A80B0E
:100078003B280000013083120313A8002808F50765
:10008800BE307502031C49284A282C288230831266
:100098000313A900DD30A800A80B5028A90B50288D
:1000A8000A128A11A7200A128A116628A401A5013A
:1000B8000A3026062704031D6228632865280915C7
:1000C800662809118312031324082504031D6D28CB
:1000D8006E285A282B280A128A110C28831603170F
:1000E80088018901831603130915851407100A125C
:1000F8008A11BF200A128A110A128A11F7200A12DD
:100108008A118312031390109012101210140B30DE
:10011800970003309600E830950083160313811288
:1001280081110114811001118230F400DD30F300D7
:10013800F30B9C28F40B9C28A128831603130C1599
:100148000B178B170800831203138518AC28AD28EA
:10015800B028F801F901BE28F301F4017808730208
:10016800A6007908031C790A7402A7000130A400CC
:100178000030A500080019308316031399001815DC
:100188001812831203139817831603138717071778
:1001980083120313181683160313981608000B11FD
:1001A8000730F00070088312031381070130F60747
:1001B8000318F70A0030F70772088A00710E8300E7
:1001C800FE0E7E0E090000308A000408840A8207A9
:1001D80000343F3406345B344F3466346D347D3438
:1001E80007347F346734831603138801831203139B
:0401F8008801080072
:04400E00F12CFF3E54
:00000001FF
