:020000040000FA
:060000000A128A110C280F
:10000800FE00030EF0000A08F1000A128A11EE2B16
:100018000A128A110F2883120313B901BA01BB010E
:10002800BC01BD01BE01BF01C001C101C201830104
:100038000A128A114F2983120313AA007A30A400E6
:100048003C2925302B0603192A282B2832282B086F
:100058000A128A11E4230A128A113C29A801A9016B
:100068002A0884000A128A1174220A128A110A12B2
:100078008A11C1230A128A11031C432844288428A0
:1000880083120313A801A9010A30F2000030F3001B
:10009800831203132908F5002808F4000A128A11AC
:1000A8007E230A128A11730883120313A9007208A7
:1000B800A8002A0884000A128A1174220A128A11D6
:1000C800D03EA000FF3003180030A1002008A80788
:1000D8000318A90A2108A9070130A0002008AA07C7
:1000E8002A0884000A128A1174220A128A110A1232
:1000F8008A11C1230A128A110318832884284828E0
:10010800013083120313AA07FF302A0784000A125A
:100118008A1174220A128A11AB00003A03194E2977
:10012800783A031998283C29240884000008A50077
:10013800840A0008A6000230A0002008A407AB012A
:10014800AB0A2B08A00020070B3E84000A128A1174
:1001580074220A128A11A1000A128A1174220A1240
:100168008A11A20022082602031DBC2821082502A4
:100178000318BF28C028C128CB280130A0002008B8
:10018800AB0704302B06031DCA28CB28A52829084D
:10019800803A803C031DD22828082B020318D52852
:1001A800D628E228831203132B08A000A1012008F7
:1001B800A8022108031CA903A902E6288312031335
:1001C800A801A901280829040319EB28EC2800290B
:1001D80020300A128A11E4230A128A11FF3083128E
:1001E8000313A8070318A90AFF30A9072808290438
:1001F800031DFF280029EC282B08A7003129270810
:10020800A00020070B3E84000A128A1174220A12E9
:100218008A11F2000A128A1174220A128A11F30052
:100228002608F5002508F4000A128A11DA220A12B3
:100238008A1172080F3983120313A30023082A3E78
:1002480084000A128A1174220A128A11AB002B0840
:100258000A128A11E4230A128A11FF308312031347
:10026800A0002008A707270A031D3B293C290329CA
:10027800013083120313AA07FF302A0784000A12E9
:100288008A1174220A128A11AB002B08031D4D290A
:100298004E29252808004A300A128A111F200A12FE
:1002A8008A1183120313B2010130B3000030B40085
:1002B80003300A128A11A3230A128A114A300A1239
:1002C8008A111F200A128A110030F5000030F4004C
:1002D8000330F300E830F2000A128A1108220A12E9
:1002E8008A1183120313B2010230B3000030B40044
:1002F80003300A128A11A3230A128A114A300A12F9
:100308008A111F200A128A110030F5000030F4000B
:100318000330F300E830F2000A128A1108220A12A8
:100328008A1183120313B2010430B3000030B40001
:1003380003300A128A11A3230A128A1113300A12EF
:100348008A111F200A128A1183120313B2011E3068
:10035800B3000030B40006300A128A11A3230A122F
:100368008A114C300A128A111F200A128A1183122C
:100378000313B2010030B300B40004300A128A112A
:10038800A3230A128A113B300A128A111F200A126B
:100398008A1183120313B2010030B300B400053090
:1003A8000A128A11A3230A128A1183120313061848
:1003B800DE29DF29052AB2010430B3000030B40079
:1003C80003300A128A11A3230A128A1106308312F3
:1003D8000313B8001330B700AD30B600B60BF229DE
:1003E800B70BF229B80BF22983120313B2010130BB
:1003F800B3000030B40003300A128A11A3230A1292
:100408008A110A128A110C28003083120313A300E0
:100418000030A2000030A1000030A0000030A3008E
:100428000030A2000030A1006E30A0007508A700BF
:100438007408A6007308A5007208A40027082604FB
:1004480025042404031D292A2A2A2B2A4F2A01308D
:10045800F6000030F7000030F8000030F9007608A8
:10046800A4027708031C770F3A2A3B2AA5027808CA
:10047800031C780F402A412AA6027908031C790F29
:10048800462A472AA7022708260425042404031D10
:100498004E2A4F2A2B2A0130F6000030F700003090
:1004A800F8000030F9007608A0027708031C770FDF
:1004B8005E2A5F2AA1027808031C780F642A652A3D
:1004C800A2027908031C790F6A2A6B2AA30223085F
:1004D800220421042004031D722A732A1A2A080000
:1004E80002308A000408840A820700343F34063444
:1004F8005B344F3466346D347D3407347F3467346D
:100508000134003410340034003401340034103421
:100518000A34203453344534543445344F34203469
:1005280056344F344C3455344D344E3445342034DD
:1005380045344E342034333430340A3400343034C3
:10054800313432343334343435343634373438345F
:100558003934613462346334643465346634003465
:100568000A342034423441344A3441342034563435
:100578004F344C3455344D3445344E3420340A34D9
:1005880000340A342034533455344234453420344A
:1005980056344F344C3455344D3445344E3420346D
:1005A8000A3400342534323478340034F701F80141
:1005B800720873040319E12AE22A192BF901F90ACE
:1005C800F02A01300310F20DF30DFF3E031DE62A59
:1005D8000130F6007608F907F31FF32AF42AE52A12
:1005E80001300310F70DF80DFF3E031DF52A7308BF
:1005F8007502031D012B72087402031C042B052BC2
:100608000C2B7208F4027308031CF503F502771427
:1006180001300310F30CF20CFF3E031D0D2B0130CB
:10062800F902031D182B192BF42A7808F300770810
:10063800F2000800F500F601F701F801342B7808FC
:100648007507F30073088400831300087607F60023
:1006580077080318770AF7000130F3007308F807E2
:1006680072087802031C392B3A2B232BF301F4016F
:1006780076087302F6007708031C770A7402F700FD
:1006880078087507F30073088400770883138000DF
:1006980078087507F300730A84007608800008005C
:1006A80083120313B0007E300A128A11D3230A1270
:1006B8008A1183120313B101712B3108393E84006A
:1006C800831300080A128A11D3230A128A110130EF
:1006D80083120313AF002F08B10730083102031C3F
:1006E800762B772B612BEF300A128A11D3230A124B
:1006F8008A110800F601F701721C832B842B8A2BC0
:100708007408F6070318F70A7508F707013003108D
:10071800F40DF50DFF3E031D8B2B01300310F30C78
:10072800F20CFF3E031D922B72087304031D9D2BD0
:100738009E2B802B7708F3007608F20008008312BE
:100748000313B500FF30B9000630BA003508BB0006
:100758003208BC003408BD003308BE000630F20081
:1007680039300A128A111E230A128A1108300A1215
:100778008A1154230A128A110800F300F2013A3050
:1007880073020318C82BC92BD12B30307302031CFA
:10079800CE2BCF2BD12BF201F20A720C0800831258
:1007A8000313AE002E08AC00AD012C08FA002D088A
:1007B800FB005D300A128A111F200A128A110800F4
:1007C800F200831203130C1EEA2BEB2BE52B7208A5
:1007D8009900080071088A00700E8300FE0E7E0ED4
:0207E800090006
:04400E00F12CFF3E54
:00000001FF
